:10097D00308003208110120A84120A727F967E0045
:10098D00120A19120A84308203208310120A84126B
:0D099D0000037F967E00120A19120A8422C0
:100A2F00208006308103120A78308006208103125D
:030A3F000A7E220A
:10086F00E4F508F509120A421209CE120A5475244A
:10087F0000752532752200752332E52B6401452A58
:10088F00700612097D120A2FE52B6402452A703378
:10089F001209AAE529640145287028120A2F1206A9
:1008AF00408E088F09E508701AE50924FE600C14C4
:1008BF00600E2402700D120A848008120A728003DF
:0B08CF00120003E52B6403452A80AFF4
:050A9600C292D2932280
:050A9B00D292C293227B
:050AA000D290C291227A
:050AA500C290D2912275
:050AAA00D290D2912260
:050AAF00D293D2922257
:06000300120A96020AA099
:060A7200120A9B020AA516
:060A7800120AAF020AA001
:060A7E00120A96020AAA0A
:060A8400120AAA020AAFEB
:060A8A00120AAF020AA5EA
:060A9000120A9B020AAAF3
:0C09E90002260000022400000222000090
:100A42005389F0758AAE758CFBC28DD28CD2A9D235
:020A5200AF22D1
:03000B000207F8F1
:1007F800C0E0C0F0C0D075D000C000C004C005C0C3
:1008080006C007758AAE758CFB0527E527700205BB
:1008180026AE26AF277C007D6412042C8C268D27FB
:10082800C3E5279525E5246480F8E526648098408B
:1008380006C294C2958004D294D295C3E527952325
:10084800E5226480F8E5266480984006C297C2963F
:100858008004D297D296D007D006D005D004D00015
:07086800D0D0D0F0D0E03247
:080A60007F5A7EA3DEFEDFFCDD
:010A6800226B
:040AB4007F04DFFEDE
:010AB800221B
:0C0A5400E4F5C9F5C8F5CCF5CDC2CA2206
:10077F00AB1DAA1CA91BA81A1200298F218E208D30
:10078F001F8C1EE4FFFE7D407C40AB21AA20A91FD9
:10079F00A81E1202C460025019E4FFFE7D407CC007
:1007AF00AB21AA20A91FA81E1202C440057E007FFC
:1007BF000122E4FFFE7D407CC0AB21AA20A91FA827
:1007CF001E1202C450057E007F0222E4FFFE7D4010
:1007DF007C40AB21AA20A91FA81E1202C47E006074
:0807EF000540037F03227F0196
:0107F70022DF
:080A69007F2D7ED0DEFEDFFCD4
:010A71002262
:10064000E4F50DF50CF50B750A41F511F510F50FF4
:10065000F50EF515F514F513F512FBFAC2A1C2A0BB
:10066000D2A1120AB4C2A130A0FDD2CA20A0FDC2FC
:10067000CAAFCDEFFEADCC7C00E42DFDEC3EFCE43A
:100680001203427BBD7A377986783512011E8F11AD
:100690008E108D0F8C0EE4FFFE7DAA7C43AB11AA59
:1006A00010A90FA80E12011EE4FBFAF978401202FD
:1006B00027E4FBFA79C8784212011E8F158E148D3B
:1006C000138C12850D1D850C1C850B1B850A1A12B7
:1006D000077FAA06AB07E4F515F514F513F512F537
:1006E00011F510F50FF50EF5CDF5CC120A69AE0235
:0206F000AF0356
:0106F20022E5
:0B09F500012C64022A00000228000010
:1009CE0053877F75985053890F438920758BFD751A
:0B09DE008DFDC2ABD28ED2ACD2AF2296
:10056C00EF249FB40C00400302063F90058575F004
:10057C0003A4C58325F0C583730205A90205B70240
:10058C0005C50205D00205DA0205E50205F20205F1
:10059C00FF020609020618020627020636E52B643E
:1005AC0001452A600302063F020003E52B64014566
:1005BC002A600302063F020A72E52B6401452A7089
:1005CC0072020A78E52B6401452A70678059E52B85
:1005DC006401452A705D020A7E752400752532750A
:1005EC00220075233222752400752564752200754E
:1005FC00236422120A84752A00752B0122E4F52843
:10060C00F529120A84752A00752B0222E52B640247
:10061C00452A701FF528752901800CE52B640245CD
:10062C002A7010F528F529020A84120A84752A000A
:04063C00752B0322F5
:0300230002092EA1
:10092E00C0E0C0F0C083C082C0D075D000C000C08F
:10093E0001C002C003C004C005C006C00730981431
:10094E0085992CE52CD394055003120A84AF2C12F2
:10095E00056CC298D007D006D005D004D003D002C3
:0F096E00D001D000D0D0D082D083D0F0D0E032F2
:100A1900EF1FAC0670011E4C600B007D027CC7DC29
:050A2900FEDDFC80EB86
:010A2E0022A5
:040AB9007F02DFFEDB
:010ABD002216
:1004700030A71530A61230A40F30A50CE4F524F5F2
:1004800025F522F523120A8420A71820A61530A4EA
:100490001220A50F75240075251E752200752328CE
:1004A00012000320A71830A61520A41220A50F754E
:1004B000240075252875220075231E12000330A71D
:1004C0004630A64320A44020A53D120A847F147E16
:1004D00000120A1975240075253275220075231E35
:1004E0007F147E00120A198019C290D29130A4069E
:1004F000D290C2918011752400752528752200754F
:10050000232812000380E220A74620A64320A4400F
:1005100030A53D120A847F147E00120A197524004A
:1005200075251E7522007523327F147E00120A196C
:100530008019C292D29330A606D292C293801175CE
:10054000240075252875220075232812000380E2F7
:1005500030A71820A61520A41230A50F7524007509
:0C056000252875220075232812000322B4
:09000E00E52EC313FEE52F13FFDC
:0B001700EF1FAC0670011E4C70F622BB
:100A0100AB07AA06EB1BAE0270011A4E60097FE824
:080A11007E0312001780ED22A4
:1008DA00EFD3945A501C7E007C037DE81203C57C3A
:1008EA00007D5A1203D7EF24DCF52FEE3405F52EDE
:1008FA008021EF24A6FFE434FFFE7C037DE8120387
:10090A00C57C007D5A1203D7C374C49FF52F74099E
:10091A009EF52ED2B212000EC2B212000E7F0A7ECD
:04092A0000020A01BC
:1009AA00E4F52DAF2D1208DA052DE52DD394B440C8
:1009BA00F2752DB4E52DC3940040E5AF2D1208DA87
:0409CA00152D80F077
:100026000203B0E86480F8E933E83360110460F055
:10003600ED33EC337009E8FCE9FDEAFEEBFF220440
:1000460060DED3EB9FEA9EE99DE8C2E78CF0C2F73B
:1000560095F0400CE8CCF8E9CDF9EACEFAEBCFFB07
:1000660012037B85D0F05804700320D5B3E80470E2
:10007600075002B2D50203BA92D5EC0460F7E4CC7D
:10008600C0E0C398F8603B94186008400DD0E0FBD0
:10009600020392E4FBFAC9FC8028E830E406E4C9CE
:1000A600FBE4CAFCE830E305E4C9CACBFCE8540724
:1000B6006010F8C3E913F9EA13FAEB13FBEC13FC2F
:1000C600D8F130F52FC3E49CFCEF9BFFEE9AFEEDD2
:1000D60099FDD0E0FBEF4E4D4C701222DB0302037C
:1000E600B7EC2CFCEF33FFEE33FEED33FDED30E7DE
:1000F600EB020392EF2BFFEE3AFEED39FDD0E0FB6B
:1001060050130BBB00030203BAED13FDEE13FEEF13
:0801160013FFEC13FC0203923D
:10011E00EC4D6011E8497017ED33EC3304600DE4DB
:10012E00FCFFFEFD22E933E8330470F80203B0123F
:10013E00037B58046009E4CC248150062850090240
:10014E0003BA2840030203B7C0E0EB4A7044B980FB
:10015E0006D0E0FB0203A6EF4E701CBD8008EBFF3D
:10016E00EAFEE9FD80EBE98DF0A4FEE5F002020760
:10017E00E9CDF9EAFEEBFFEF89F0A4FCE5F0CE89BC
:10018E00F0A42EFFE435F0CD89F0A42DFEE435F079
:10019E008067EF4E7005BD80D780C3EF8BF0A4ACA7
:1001AE00F0EE8BF0A42CFCE435F0F8EF8AF0A42CE2
:1001BE00E5F038FCE433CB8DF0A42CFCE5F03BF8F5
:1001CE00EE8AF0A42CFCE5F038F8E433CF89F0A4E5
:1001DE002CFCE5F038CF3400CE89F0A42FFFE5F0EB
:1001EE003EFEE433C98DF0A42EFEE5F039CD8AF043
:1001FE00A42FFFE5F03EFEE43DFD33D0E0FB5007BB
:10020E000BBB000F0203BAEC2CFCEF33FFEE33FEF8
:06021E00ED33FD02039226
:100224000203BAEC5D046005E8590470030203B0EC
:1002340012037B580460F6EC4860F2EC7004FDFE97
:10024400FF22C860DB2481C85009C39860025006AD
:100254000203B79850CAF582E9294B4A7005AB826C
:100264000203A675F0007C1A7880C3EF9BEE9AED2A
:1002740099400DC3EF9BFFEE9AFEED99FDE842F025
:10028400DC23ACF0D0E0FFD0E0FED0E0FDAB822078
:10029400E7101BEB60BAEC2CFCEF33FFEE33FEED02
:1002A40033FD020392E803F830E705C0F075F0006F
:1002B400EF2FFFEE33FEED33FD40B830E7C280AAE6
:1002C40074F8CC6480CCC86480C8F58204604FC3E1
:1002D400EB9FF5F0EA9E42F0E99D42F0E89C45F080
:1002E400603C501DE5825FFFE582D313CB5BCBF40A
:1002F4002B5582FB50280ABA002409B90020088033
:100304001DE5825BFBE582D313CF5FCFF4C3132FCC
:100314005582FF50090EBE00050DBD00010CC3EB54
:100324009FF5F0EA9E42F0E99D42F0E89C45F060BA
:0903340007CC4820E701B3EC22DC
:10033D0075F020800E75F010800575F0087D007E3B
:10034D00007F003392D530D503120462EC33401098
:10035D00EF33FFEE33FEED33FDEC33FCD5F0ED2244
:0E036D00E5F0247EA2D513CC92E7CDCEFF2280
:10037B00E9D2E7C933E833F892D5EDD2E7CD33ECC8
:07038B0033FC5002B2D52241
:10039200EC30E7100FBF000C0EBE00080DBD0004CC
:1003A2000BEB6014A2D5EB13FCED92E7FD2274FF78
:1003B200FCFDFEFF22E480F8A2D574FF13FC7D80D1
:0303C200E480EFE5
:030000000206F302
:0C06F300787FE4F6D8FD75812F02073AED
:1003C500EF8DF0A4A8F0CF8CF0A428CE8DF0A42E4C
:0203D500FE2206
:1003D700BC000BBE0029EF8DF084FFADF022E4CC0A
:1003E700F875F008EF2FFFEE33FEEC33FCEE9DECD3
:1003F700984005FCEE9DFE0FD5F0E9E4CEFD22ED19
:10040700F8F5F0EE8420D21CFEADF075F008EF2F62
:10041700FFED33FD4007985006D5F0F222C398FD53
:050427000FD5F0EA22F0
:10042C00C2D5EC30E709B2D5E4C39DFDE49CFCEEEB
:10043C0030E715B2D5E4C39FFFE49EFE1203D7C389
:10044C00E49DFDE49CFC80031203D730D507C3E484
:06045C009FFFE49EFE225A
:0E046200C3E49FFFE49EFEE49DFDE49CFC22AB
:1006FF0002086FE493A3F8E493A34003F68001F29A
:10070F0008DFF48029E493A3F85407240CC8C333FB
:10071F00C4540F4420C8834004F456800146F6DFCA
:10072F00E4800B01020408102040809009E9E47E68
:10073F00019360BCA3FF543F30E509541FFEE493BF
:10074F00A360010ECF54C025E060A840B8E493A386
:10075F00FAE493A3F8E493A3C8C582C8CAC583CAB1
:10076F00F0A3C8C582C8CAC583CADFE9DEE780BE69
:010A000000F5
:00000001FF
